:100000000C9490000C94B1000C94B1000C94B100CD
:100010000C94B1000C9458160C94B1000C94B100DF
:100020000C94B1000C94B1000C94B1000C94B1008C
:100030000C94B1000C94B1000C94B1000C94B1007C
:100040000C94B1000C9437170C94B1000C94B100CF
:100050000C94B1000C94B1000C94B1000C94B1005C
:100060000C94B1000C94F2160C94A8160C94B100E8
:100070000C94B1000C94B1000C94B1000C94B1003C
:100080000C94B1000C94B1000C94B1000C94B1002C
:100090000C94B1000C94B1000C94B1000C94B1001C
:1000A0000C94B1000C94B1000C94B1000C94B1000C
:1000B0000C94B1000C94B1000C94B1000C94B100FC
:1000C0000C94B1000C94B1000C94B1000C94B100EC
:1000D0000C94B1000C94B1000C94B1000C94B100DC
:1000E0000C94B1000C940C0A0C94EC090C944E0C7A
:1000F0000C949A120C9453120C94C1100C94030A91
:100100000C94F80A0C94000A0C944F160C94090AEB
:100110000C949C0F0C94060A0C94FF0C0C94FD0993
:1001200011241FBECFEFD1E2DEBFCDBF00E00CBF78
:1001300019E0A0E0B2E0E4E1F3E300E00BBF02C0AD
:1001400007900D92AE33B107D9F726E1AEE3B9E0DF
:1001500001C01D92AB38B207E1F70E9476170C94EC
:1001600088190C940000FC01AB014F575F4FDB0175
:100170002D91BD01222329F0A417B50711F0219379
:10018000F6CF08958EBD0DB407FEFDCF8EB5089550
:100190001F93CF93DF93D82F192FC62F2C9880EF62
:1001A0000E94C200812F0E94C2008D2F0E94C200B7
:1001B0008C2F0E94C2002C9ADF91CF911F9108953D
:1001C000EF92FF920F931F93CF93DF938B01040F56
:1001D000151FEB017C01E61AF70AC7018C0F9D1F62
:1001E000C017D10721F069910E94C800F6CFDF91B6
:1001F000CF911F910F91FF90EF900895CF93DF93D0
:10020000EC012C988FE00E94C2008D2F0E94C2004A
:100210008C2F0E94C20080E00E94C2002C9ADF91C5
:10022000CF910895EF92FF920F931F93CF93DF9397
:100230008B01040F151FEB017C01E61AF70AC701B9
:100240008C0F9D1FC017D10721F00E94FE008993DB
:10025000F6CFDF91CF911F910F91FF90EF9008950E
:100260007F928F929F92AF92BF92CF92DF92EF9246
:10027000FF920F931F93CF93DF93C82F8A3009F417
:1002800045C0209183163091841640918516509177
:1002900086166091871670918816809189169091C4
:1002A0008A16A2E30E945819722E832E942ED52FFF
:1002B000B62FA72FF82FE92F8091EF0B9091F00B1D
:1002C0002091ED0B3091EE0B821B930B8F3F91052C
:1002D00099F190F120918316309184164091851602
:1002E00050918616609187167091881680918916B4
:1002F00090918A16A72CB82CC92CDD2EEB2EFA2E45
:100300000F2F1E2F0E946419B8F206C08DE00E94C4
:100310003001892B09F0B5CF90E080E0DF91CF91DB
:100320001F910F91FF90EF90DF90CF90BF90AF9013
:100330009F908F907F9008952FB7F8948091EF0B46
:100340009091F00BAC014F5F5F4F5093F00B4093D7
:10035000EF0B9927FC01E351F44FC4838091C10056
:1003600080628093C1008091C00080648093C0004F
:100370002FBF81E090E0D2CFCF93DF93EC01899142
:10038000882321F00E943001892BC9F7DF91CF919A
:100390000895EF92FF921F93CF93DF93182F7B0165
:1003A000D0E0C0E0CE15DF053CF4812F0E94300183
:1003B000892B11F02196F6CFCE01DF91CF911F91BD
:1003C000FF90EF900895CF92DF92EF92FF92CF933C
:1003D0002091EB0B3091EC0B61E070E0621B730B32
:1003E00043E5469FF001479FF00D1124EB5BF44F6E
:1003F00086819781429FD001439FB00D1124AB5B52
:10040000B44F14960D90BC91A02D8A179B0748F00D
:10041000C080D180E280F380CD28CE28CF2809F497
:10042000A1C0C3E5C29FF001C39FF00D1124EB5B97
:10043000F44F268137812817390709F493C01092A9
:100440006F00109280001092831610928416109202
:1004500085161092861610928716109288161092A2
:10046000891610928A1610928500109284002091AD
:10047000EB0B3091EC0B8A179B0708F44AC0C29F24
:10048000F001C39FF00D1124EB5BF44F2481358103
:10049000AC01421B530BC69F9001C79F300D112426
:1004A000F901EB5BF44F57834683CFE0C49FF00123
:1004B000C59FF00D1124E20FF31FEB5BF44F208575
:1004C0003185309389002093880026892860209305
:1004D000810020E42093800022E020936F008A179F
:1004E0009B07A0F08091EB0B9091EC0B23E5289FEC
:1004F000F001299FF00D1124EB5BF44F1082118263
:10050000128213827093EC0B6093EB0B81E090E00E
:100510002BC0C29FA001C39F500D1124FA01EB5BB9
:10052000F44F97838683EFE0E89F9001E99F300DB9
:100530001124420F531FFA01EB5BF44F40855185A4
:1005400050938900409388004091EB0B5091EC0B45
:10055000C49FF001C59FF00D1124E20FF31FEB5B68
:10056000F44FB3CF90E080E0CF91FF90EF90DF9019
:10057000CF9008952F923F924F925F926F927F9209
:100580008F929F92AF92BF92CF92DF92EF92FF92A3
:100590000F931F93CF93DF93CDB7DEB761970FB65D
:1005A000F894DEBF0FBECDBF6B837C838D839E83AB
:1005B0002091EB0B3091EC0B3987288781E090E09C
:1005C000AC01421B530B5B874A8787E792E09D870C
:1005D0008C8791E09F831A82198210E000E083E506
:1005E000849FF001859FF00D1124FF87EE87EC8535
:1005F000FD85B0803296FD87EC8721E030E00B2C42
:1006000002C0220F331F0A94E2F7398B288BC901ED
:100610000197092E000CAA0BBB0B88279472A47FAC
:10062000BB27892B8A2B8B2B09F0BBC160E074E2BE
:1006300084EF90E00B2C04C096958795779567958D
:100640000A94D2F72B813C814D815E8126173707B2
:100650004807590708F0A5C10E94701869017A017E
:10066000C114D10431E0E306F10408F09AC160E05E
:1006700070E18EE59FE504C096958795779567951F
:10068000BA94D2F748895989493E53400CF4EAC0DC
:10069000A8EEB3E09B01AC010E94B818F3E02F2E46
:1006A000312CA0EA8A2EA6E89A2EAA24A394B12C73
:1006B000A70196010E94701829013A0151E1C5165F
:1006C00057E2D506E104F10408F4FEC0A0E1B7E268
:1006D000A30192010E94B8182B013C01A5019401CD
:1006E0000E94B8184B015C0184E0280E311C2B815C
:1006F0003C814D815E81C501B4010E946018A30157
:100700009201261B370B480B590BCA01B9012B81EB
:100710003C814D815E810E94921839012A01C501F8
:10072000B40124E630E040E050E00E949218490114
:100730005A018FE0809FA001819F500D1124EE850A
:10074000FF854E0F5F1F4B5B544F598B488BFA014F
:10075000C086D186E286F386B301C201A501940169
:100760000E94921869017A01E889F989C486D586C0
:10077000E686F786B301C20197FF07C09095809582
:10078000709561957F4F8F4F9F4FA50194010E94F7
:1007900092184B015C012FE0209FF001219FF00D8A
:1007A00011244E855F85E40FF51FEB5BF44F808AC3
:1007B000918AA28AB38A358A248A5F81568B89817D
:1007C0009A810817190709F4EAC0EFE0E89FD00101
:1007D000E99FB00D11242E853F85A20FB31FAB5B9F
:1007E000B44F1C964D915D916D917C911F97C416ED
:1007F000D506E606F7060CF4D0C0C416D506E60604
:10080000F70609F0CCC054968D919C915597F10153
:10081000E81BF90B50964D905D906D907C9053972E
:10082000F98BE88BC12CD12C7601C3944889598966
:10083000141615060CF492C0CF01F7FF02C090E029
:1008400080E0E81BF90B61E070E080E090E0309719
:1008500009F492C0AAE0B0E09B01AC010E94B81874
:100860003196F5CF288939892536310584F0A4E6FB
:10087000B0E09B01AC010E94B81852E0252E312C4B
:10088000E0E18E2EE7E29E2EA12CB12C11CF4889FB
:100890005989312C212C24E6822E912CA12CB12CAB
:1008A0004B3051050CF404CFAAE0B0E09B01AC0141
:1008B0000E94B81822242394312C48EE842E43E061
:1008C000942EA12CB12CF4CE99EEC91693E0D90642
:1008D000E104F10490F0A8EEB3E0A30192010E94BC
:1008E000B8182B013C01A50194010E94B8184B01D6
:1008F0005C01E3E02E0E311CFACEF5E6CF16D104F2
:10090000E104F10490F0A4E6B0E0A30192010E949A
:10091000B8182B013C01A50194010E94B8184B01A5
:100920005C0122E0220E311CE2CE3BE0C316D10472
:10093000E104F10408F4DBCEAAE0B0E0A3019201E7
:100940000E94B8182B013C01A50194010E94B8181F
:100950004B015C014FEF241A340AC9CEAAE0B0E083
:10096000A70196010E94B8186B017C0188899989BA
:100970000197998B888B5ACFA50194010E9460182A
:100980004B015C01A7019601C301B2010E946018EE
:10099000681579058A059B0514F01A8309830F5F92
:1009A0001F4F9F819F5F9F83963009F020CE83E584
:1009B0000115110509F43FC02A853B85829FF0018E
:1009C000839FF00D1124EB5BF44F2B813C814D8113
:1009D0005E8120833183428353831583048348855A
:1009E0005985849FD001859FB00D1124AB5BB44F16
:1009F00014968D919C9129813A81820F931F978340
:100A00008683C80161960FB6F894DEBF0FBECDBFD6
:100A1000DF91CF911F910F91FF90EF90DF90CF90DA
:100A2000BF90AF909F908F907F906F905F904F900E
:100A30003F902F9008954A855B85849FF001859FA4
:100A4000F00D1124EB5BF44F10821182128213829D
:100A50001582148228853985829FD001839FB00D2D
:100A60001124AB5BB44F16968D919C91C8CFDC01DD
:100A70004D9190E080E0442331F124E0880F991FEC
:100A80002A95E1F720ED240F2A3048F4042E000CBB
:100A9000550B40535109842B952B4D91ECCF2FE9E9
:100AA000240F263030F4042E000C550B4755510905
:100AB000F2CF2FEB240F263060F4042E000C550BE0
:100AC00047535109E8CFFB019183808390E080E098
:100AD00008958FEF9FEF0895DC01FB019D918191B7
:100AE00089173CF0981744F09111F8CF90E080E01E
:100AF000089581E090E008958FEF9FEF08952F9281
:100B00003F924F925F926F927F928F929F92AF929D
:100B1000BF92CF92DF92EF92FF920F931F93CF93EA
:100B2000DF93CDB7DEB7E8970FB6F894DEBF0FBE00
:100B3000CDBF9AA389A378A76FA35AA749A7890114
:100B4000892B19F0672B09F4FAC318A2A9A5BAA535
:100B50008C91312C212C882309F4C9C3853269F585
:100B6000C9A4DAA4BFEFCB1ADB0A1CA61BA6F0E0CF
:100B7000E0E01EA61DA61CA21BA266246A94762C89
:100B80002FEF3FEF3EA32DA39AE0A92EDAA6C9A628
:100B9000D6012C91BFEFCB1ADB0A222321F125329B
:100BA00009F053C07101EFEFEE1AFE0A89A19AA174
:100BB000892B09F03FC085E208C071013FEFE31ABD
:100BC000F30AA9A1BAA1AB2B19F40E9430010AC003
:100BD000EFA1F8A5EE16FF0628F4E9A1FAA1E20DAF
:100BE000F31D80831701A9A5BAA511968C911197C1
:100BF0001196BAA7A9A7AFCFE1E0F0E0C7CFE3E035
:100C0000F0E0C4CFE5E0F0E0C1CF21E030E03CA768
:100C10002BA7BCCF81E090E09EA78DA7B7CF712C0A
:100C2000612CB4CFA1E0B0E0BCA3ABA3AFCF9DA338
:100C30008EA3ACCFAFA1B8A5EA16FB0698F6E9A142
:100C4000FAA1E20DF31D2083CDCF233709F0ADC00B
:100C5000C8010296F801C080D180F6019F012C19CD
:100C60003D0941914111FACF4FE150E02A01421A6A
:100C7000530A8C011EA61DA62DA13EA1F12CE12C2C
:100C800037FD06C07901E40CF51CC7014F977C01C4
:100C9000ABA5BCA5AB2BC1F4EDA5FEA5B0E35B2EC7
:100CA000EF2B11F4A0E25A2EB12CA12C4101FFEF41
:100CB0008F1A9F0AAE14BF04ECF0C701F7FE02C002
:100CC00090E080E0280E391E620C731C2614370455
:100CD00069F1D6018C91882349F1BFEF2B1A3B0AA9
:100CE000E9A1FAA1EF2BC1F53FEFC31AD30A0E9485
:100CF0003001ECCF29A13AA1232B39F4852D0E9494
:100D000030013FEFA31AB30AD5CFC4018A0D9B1D52
:100D1000AFA1B8A58A179B07A0F7F101EA0DFB1D4B
:100D200029A13AA1E20FF31F5082EBCF2BA53CA5DE
:100D30002130310509F057CF6101F0E2BF2EC60125
:100D4000821993098E159F05C4F0F7FE02C0F12C9D
:100D5000E12C2E0C3F1C47CFAFA1B8A52A163B06AD
:100D600008F0B4CFBFEFCB1ADB0AF101319729A10C
:100D70003AA1E20FF31F8083A9CF3FEFC31AD30A32
:100D800089A19AA1892B21F480E20E943001D7CF5A
:100D9000AFA1B8A5CA16DB0690F6F601319729A1D6
:100DA0003AA1E20FF31FB082CACF233679F4D801FB
:100DB0008C918F8F0E5F1F4FEEE14E2E512C1EA691
:100DC0001DA66E01BFE1CB0ED11C56CF243619F003
:100DD000293609F0F8C0E330F10509F48EC03497E4
:100DE00009F4A1C0C80102969EAB8DABD801119643
:100DF0006C9011977C90862C880C8808582C482C75
:100E0000F82DE82D982C2BA13CA123303105D1F0F1
:100E1000272D362D482D552D642D7F2F8E2F992D62
:100E2000A0E00E946D1974F40E942219722E632EA4
:100E3000842E552E462EF72FE82F992E8FEF9FEFF9
:100E40009CA38BA38FA658AA49AAFAABEBAB9CAA8A
:100E5000DE011196B8AFAFAB6FE1862E912C240165
:100E6000B1E04B1A51085AE0A52EB12CC12CD12C5F
:100E7000E12CF12C00E010E0272D362D4FA558A9CC
:100E800069A97AA98BA99CA90E94C318205DEFA922
:100E9000F8AD268F272D362D4FA558A969A97AA917
:100EA0008BA99CA90E94C518722E632E4FA758AB20
:100EB00069AB7AAB8BAB9CABA0E00E946D1909F4D7
:100EC0004EC02FA938AD2150310938AF2FAB4201A8
:100ED0004114510421F6CC24C394D12CCC0EDD1E38
:100EE000C40CD51C0DA91EA966246A94762CC4CE08
:100EF00023E030E03CA32BA36ECFF8013496FEAB89
:100F0000EDABF80180819181A281B381782E692EA9
:100F10008A2E5B2EBB0F880B982FDC01482EF82FF2
:100F2000E82F982E70CF9801285F3F4F3EAB2DAB36
:100F3000D8017C9011966C90119712968C90129714
:100F400013965C90139714964C9014971596FC91F9
:100F500015971696EC91169717969C9054CF4114BE
:100F6000510409F4B8CF8BA19CA18130910599F06F
:100F700082309105E1F0019609F0ADCF2401B2E095
:100F80004B1A5108E1E0F0E0EC0FFD1FE40DF51DF8
:100F90008DE28083A0CF2401E2E04E1A5108E1E007
:100FA000F0E0EC0FFD1FE40DF51D8BE2F2CF240104
:100FB000F2E04F1A5108E1E0F0E0EC0FFD1FE40D04
:100FC000F51D80E2E6CF253709F492CF283719F0D6
:100FD000283509F06CC0E330F10509F453C03497AB
:100FE00009F05BC0F8013896D8018C9011969C905E
:100FF00011971296AC9012971396BC901397149673
:10100000CC9014971596DC9015971696EC90169741
:101010001796FC90B1E6283709F0B1E49E012F5FE6
:101020003F4F39013FE1432E512C16EF1B0FC401F6
:101030008F70992731E0431A51088A309105A8F53D
:10104000805DD3015E968C939401A501B601C70122
:1010500004E00E94341949015A016B017C01A0E0AF
:101060000E946D1931F0B1E06B1A710841145104FE
:10107000F1F6CC24C394D12CCC0EDD1EC40CD51CAF
:101080008F0132CFF8013496D8018D909D90AD90AC
:10109000BC90C12CD12C7601BDCFF8013296D8017D
:1010A0008D909C90B12CA12CF4CF810FCACF2F36FC
:1010B00009F05AC0E430F105C1F0E530F10511F056
:1010C000339741F0F8013296D8018D909C90B12C65
:1010D000A12C07C0F8013496D8018D909D90AD9059
:1010E000BC90C12CD12C760118C0F8013896D801DB
:1010F0008C9011969C9011971296AC901297139623
:10110000BC9013971496CC9014971596DC90159775
:101110001696EC9016971796FC909E012F5F3F4F06
:1011200039012FE1422E512C31E0431A5108882D0C
:101130008770805DD3015E968C939401A501B60102
:10114000C70103E00E94341949015A016B017C0177
:10115000A0E00E946D1909F48CCFB1E06B1A710800
:101160004114510409F785CF203759F4F80132961C
:10117000D8018D909C90B12CA12CC12CD12C760142
:101180004CCF2E3679F5D8012D913D918D01E2306D
:10119000F10519F030F43197B1F0F9013182208274
:1011A00022CDE330F10591F03497B9F7F90131829E
:1011B0002082832D880F880B828383838483858399
:1011C0008683878310CDD9012C920DCDA101032CEC
:1011D000000C660B770BD9014D935D936D937C9357
:1011E000139701CD283631F4329709F405CDE2E0AA
:1011F000F0E0CCCC2C3631F4339709F000CDE4E0AC
:10120000F0E0C4CC2A3709F4FDCC2D3209F4FDCC32
:1012100080ED820F8A3070F577FE1EC08DA19EA1F1
:1012200097FF03C0203309F4F5CCEDA0FEA0F7FE34
:1012300002C0F12CE12CAE9CC001AF9C900D11249A
:10124000E22E220FFF08A0E3EA1AF1089701280F07
:10125000391F3EA32DA39ACCA69CC001A79C900D3C
:101260001124622E220F770830E3631A7108680E8A
:10127000791E8CCC2E3209F4D2CC2B3209F4D2CC8C
:10128000203251F48BA19CA1019709F47FCC22E07C
:1012900030E03CA32BA37ACC2A3209F077CC78013A
:1012A00092E0E90EF11CD80111963C911197BC9087
:1012B0000B2D132FB32FBB0FBB0B2B2D4B2F5B2FE6
:1012C0006B2F7B2F8B2F9B2FA0E00E946D193CF47E
:1012D0000E942219890121E030E03CA72BA7902F22
:1012E000812F870177FCA3CC692E782E4FCCE9A102
:1012F000FAA1EF2B51F02FA138A52216330610F5D5
:10130000E9A1FAA1E20DF31D1082C101E8960FB622
:10131000F894DEBF0FBECDBFDF91CF911F910F912B
:10132000FF90EF90DF90CF90BF90AF909F908F9005
:101330007F906F905F904F903F902F900895312C49
:10134000212CDECFE9A1FAA18FA198A5E80FF91F02
:101350003197DACFCF92DF92EF92FF920F931F93E4
:10136000CF93DF936A01E82FF0E0EE0FFF1FDF015C
:10137000A159BD4FED90FC9080E6F82AC701860F79
:10138000971F8B01020F131FE959FD4FC081D181B7
:10139000AE014F5F5F4F40175107D8F4C61BD70B04
:1013A000219689010C1B1D0BAE01B6010E94120192
:1013B000B6016C0F7D1FA801C7010E941201C80170
:1013C000DF91CF911F910F91FF90EF90DF90CF9021
:1013D0000895A901B601F1CFE091430BF091440BC0
:1013E000EE0FFF1FE95BFD4F0190F081E02D199595
:1013F0009093440B8093430B089587E090E0089509
:1014000087E090E0089587E090E0089587E090E01D
:10141000089587E090E008959F92AF92BF92CF9297
:10142000DF92EF92FF920F931F93CF93DF93CDB78D
:10143000DEB72C970FB6F894DEBF0FBECDBFCE013E
:1014400001966C0188E0F60111928A95E9F7909077
:101450001C021C861B861A861986092D10E078014D
:10146000F4E0EF0EF11CFE2CEE2442E050E0BE0151
:10147000655F7F4FC70186620E9412018B859C8544
:101480009827892798279C878B87089718F482E0EC
:1014900090E09CC0570188E2A82A42E050E0BE01DB
:1014A000675F7F4FC5010E94120169857A857627A3
:1014B000672776277A876987000F111FF801E95996
:1014C000FD4F808191816823792328E030E0A601D7
:1014D000892D0E94AA09FC012B853C8528503109E1
:1014E0003C872B8769817A818B819C810E94B1180E
:1014F00069837A838B839C838D819E81982789273A
:1015000098279E838D838F81988598278927982790
:1015100098878F838217930710F49C878B870B859E
:101520001C85011592E0190710F000E012E0980107
:1015300043E459E0BF01892D0E94AA098B859C854F
:1015400029853A85820F931F08969827892798271F
:101550009A87898742E050E0BE01675F7F4FC501EF
:101560000E94E00060E2C70181600E94C80001158E
:10157000110509F48CCF013F110508F468CF809163
:101580004309823009F063CF4091470950914809DF
:101590006091490970914A0980913F0990914009F1
:1015A000A0914109B0914209481759076A077B0782
:1015B00009F04DCF80914909853309F048CF8091DA
:1015C0004B09823009F043CF83E090E02C960FB6B0
:1015D000F894DEBF0FBECDBFDF91CF911F910F9169
:1015E000FF90EF90DF90CF90BF90AF909F900895C5
:1015F0006F927F928F929F92AF92BF92CF92DF9223
:10160000EF92FF920F931F93CF93DF9300D000D000
:1016100000D01F92CDB7DEB781E08093430980935D
:10162000440996E09093450910924609E09183168B
:101630007091841660918516509186169091871648
:10164000909188169091891690918A169B01E0934B
:101650003F09309340092093410950934209E09398
:101660004709309348092093490950934A09109239
:101670004C0910924B0920E030E830934E0920933A
:101680004D0910924F091092500910925109109271
:101690005209109253091092540910925509109250
:1016A0005609109257091092580910925909109230
:1016B0005A0910925B0910925C0910925D09109210
:1016C0005E0990E990935F0992EA909360099AED20
:1016D000909361091092620997E4909363099FEADD
:1016E0009093640910926F091092AF0990911802BB
:1016F00090932F0A909119029093300A90911A02B8
:101700009093310A90911B029093320A95E3909343
:10171000330A8093340A8093350A1092360A8FEF89
:101720008093370A00911C021A86198680E093E4A0
:1017300098878F838FEF9FEFDC0189839A83AB8338
:10174000BC831E821D8210E0580184E0A80EB11CEB
:10175000BA2CAA2442E050E0BE01675F7F4FC5016A
:1017600080620E941201C984DA84DC24CD24DC2446
:10177000DA86C986C114D10409F475C07601E6EF92
:10178000CE16D10418F095EFE92EF12C44E050E08C
:10179000BE016F5F7F4FC5018C600E94E00042E098
:1017A00050E0BE01695F7F4FC50180610E94E0008B
:1017B0004501F4E28F2A42E050E0BE016B5F7F4FAB
:1017C000C4010E9412012D813E8132272327322736
:1017D0003E832D83000F111FF801E959FD4F6081F1
:1017E00071812623372301591D4FF80160807180D4
:1017F000689476F8C901860D971D6F5F7F4FA90128
:101800004E0D5F1D6417750708F044C08B01021B65
:10181000130BA80163E479E00E94E000A701401BDC
:10182000510BB8016D5B764FC3010E94E0008D81C2
:101830009E81E80EF91EFE24EF24FE24FE82ED8236
:1018400042E050E0BE016B5F7F4FC4010E94E000A8
:1018500060E2C50181600E94C80082E090E0F5EF7F
:10186000CF16D10410F487E090E02A960FB6F894D2
:10187000DEBF0FBECDBFDF91CF911F910F91FF90C3
:10188000EF90DF90CF90BF90AF909F908F907F9020
:101890006F900895A70163E479E0C7CFCF92DF92FC
:1018A000EF92FF920F931F93CF93DF931F921F929C
:1018B000CDB7DEB780911C028F3F09F052C080E0A7
:1018C00094E49A83898300913E09802F90E010E090
:1018D000C12ED12C9C01012E02C0359527950A946A
:1018E000E2F720FF02C01F5FF3CF143080F08FEFCC
:1018F00080931C0287E090E00F900F90DF91CF91D2
:101900001F910F91FF90EF90DF90CF900895760197
:1019100084E0E80EF11CFE2CEE2462E0C7010E9478
:10192000C80042E050E0BE016F5F7F4FC701846096
:101930000E94E00061E0C70181600E94C800C70109
:1019400083600E94FE00823091F681E090E0012EDB
:1019500001C0880F0A94EAF7082B00933E09109300
:101960001C0281E090E0C8CFCF93DF93C0910116B5
:10197000D09102168091FF1590910016BE01681B50
:10198000790B88E00E94C901BE0180E20E94C90172
:1019900081E090E09093FE158093FD151092021661
:1019A00010920116109200161092FF15DF91CF9140
:1019B0000895CF93DF93CDB7DEB79E01245F3F4FED
:1019C0004A855B8560E570E08E819F810E947F057E
:1019D000DF91CF910895CF93DF93CDB7DEB79E010E
:1019E0002A5F3F4FF901419151919F0170E060E002
:1019F00090E080E00E947F05DF91CF910895AF9243
:101A0000BF92CF92DF92EF92FF920F931F93CF93EB
:101A1000DF9300D01F921F92CDB7DEB77C018B0100
:101A20000397029790F4BE016D5F7F4FF8018281AA
:101A300093810E943705892B89F087E892E09F9374
:101A40008F930E94EB0C0F900F9084ED92E09F9388
:101A50008F930E94EB0C0F900F905CC0F801C48034
:101A6000D580B60185EF98E00E946C05892B09F0BE
:101A700061C081E090E09A838983F4E0EF16F1047D
:101A8000B1F110E000E08AEAC82E82E0D82E95EE8F
:101A9000A92E98E0B92E7801FFE0EF22FF2489817A
:101AA0009A810817190788F58B819C8141E050E0E5
:101AB000BE016B5F7F4F800F911F0E9412018D81CD
:101AC0001F928F93DF92CF920E94EB0C0F900F909A
:101AD0000F900F908FE0E816F10431F4BF92AF92AF
:101AE0000E94EB0C0F900F900F5F1F4FD4CFBE01E1
:101AF0006F5F7F4FF801868197810E943705892BA0
:101B000009F4BFCF89E992E09ACF85EE98E0EF28FB
:101B100009F09DCF0F900F900F900F900F90DF91D5
:101B2000CF911F910F91FF90EF90DF90CF90BF90DA
:101B3000AF900895B60180EB92E00E946C05892B6E
:101B400009F083CFE4E0EE16F10419F082EB92E0A5
:101B500076CFBE016F5F7F4FF801868197810E942B
:101B60003705892B19F085EC92E069CF89818D8347
:101B700041E050E0BE016B5F7F4F8B819C810E94F2
:101B8000E000C8CF2F923F924F925F926F927F9268
:101B90008F929F92AF92BF92CF92DF92EF92FF927D
:101BA0000F931F93CF93DF9300D01F92CDB7DEB773
:101BB000E090EB0BF090EC0B01E010E00E191F0928
:101BC0008091831690918416209185163091861607
:101BD00040918716509188166091891670918A16E7
:101BE0007F936F935F934F933F932F939F938F9325
:101BF0008EE093E09F938F930E94EB0C83E58E9D84
:101C000090018F9D300D11242B5B344F3C832B832F
:101C1000D90113968C9113978F9312968C911297EA
:101C20008F9311968C9111978F938C918F9380E263
:101C300093E09F938F930E94EB0C81E493E09F933A
:101C40008F930E94EB0C8FE593E09F938F930E94FC
:101C5000EB0C6B807C800FB6F894DEBF0FBECDBF5F
:101C60001C821B827301F4E0EF0EF11CCC24C394A0
:101C7000D12C530126E0A20EB11CECE78E2EE3E03E
:101C80009E2ED7018D919C91EB81FC81E817F9077D
:101C900008F06CC0D30150964C91509751965C91CE
:101CA00051975296EC9152975396FC9153975496B4
:101CB0002C91549755963C9155971C962C901C97B7
:101CC0001D963C901D971E964C901E971F965C90FB
:101CD0001F971896BC91B983D3011996BC91BA830A
:101CE000D30156968C91682F6150770BDB01AA0FB8
:101CF000BB1FA958BD4FC6010C9002C0880F991F89
:101D00000A94E2F7D5016D917C91AB81BC816A1791
:101D10007B0751F160E2FF93EF935F934F933F9303
:101D20002F935F924F923F922F92BA81BF93E98196
:101D3000EF939F938F93FC81FF932B812F931F929F
:101D40006F939F928F920E94EB0C6B817C816F5FEF
:101D50007F4F7C836B837FE0670E711C0FB6F89416
:101D6000DEBF0FBECDBF8DCF6DE2D5CF85EE98E043
:101D70009F938F930E94EB0C83E5809F4001819F8E
:101D8000900C1124D401AB5BB44F4D018D919D910A
:101D90000D90BC91A02D0F900F900097A105B1055B
:101DA00009F4B3C0BF93AF939F938F9389E993E0F6
:101DB0009F938F930E94EB0CF401E480F5800F90C9
:101DC0000F900F900F900F900F908BEB93E0E1141A
:101DD000F10409F494C081E493E09F938F930E94EF
:101DE000EB0C8FE593E09F938F930E94EB0C2B817C
:101DF0003C81E20EF31E0F900F900F900F90CC24B9
:101E0000C394D12C23E5209FC001219F900D112464
:101E10008C01055B144F2CE7A22E23E0B22E6B81C0
:101E20007C816E157F0509F468C0D4015096EC9151
:101E300050975196FC91519752967C905297539699
:101E40006C90539754964C91549755965C91559736
:101E50001C964C901C971D965C901D971E962C917D
:101E60001E971F963C911F9718962C9018971996BD
:101E70003C90199756968C91682F6150770BDB0137
:101E8000AA0FBB1FA958BD4FC6010C9002C0880FF6
:101E9000991F0A94E2F7D8016D917C91AB81BC81C6
:101EA0006A177B0741F160E26F927F92FF93EF9395
:101EB0005F934F933F932F935F924F923F922F9256
:101EC0009F938F93BC81BF93EB81EF931F926F938E
:101ED000BF92AF920E94EB0C2B813C812F5F3F4F52
:101EE0003C832B833FE0830E911C0FB6F894DEBF3A
:101EF0000FBECDBF94CF6AE2D7CF85EE98E09F9317
:101F00008F930E94EB0C0F900F900F900F900F90FB
:101F10000F90DF91CF911F910F91FF90EF90DF9085
:101F2000CF90BF90AF909F908F907F906F905F9079
:101F30004F903F902F9008958F929F92AF92BF92B3
:101F4000CF92DF92EF92FF920F931F93CF93DF9385
:101F50001F921F92CDB7DEB74C017B0182E088163D
:101F60009104BCF487EF93E09F938F930E94EB0C56
:101F70000F900F900F900F90DF91CF911F910F91C5
:101F8000FF90EF90DF90CF90BF90AF909F908F9099
:101F90000895FB01C280D380B6018DE694E00E94D3
:101FA0006C05892B19F40E94C20DE4CFB60182E7BB
:101FB00094E00E946C05892B69F40E94E301892B4F
:101FC00091F788E794E09F938F930E94EB0C0F901A
:101FD0000F90E9CF0091EB0B1091EC0B81E090E0BA
:101FE0005C01A01AB10AB60181EA94E00E946C0576
:101FF000892B69F483E58A9DF0018B9DF00D1124F6
:10200000EB5BF44F1082118212821382CCCFB601A7
:1020100088EA94E00E946C05892BC9F5F3E08F16DD
:10202000910409F09FCFF701B480A580EB2DFA2D24
:102030009190C12CD12C7601992009F47FC0AAE09F
:10204000B0E0A70196010E94B81820ED290D2A30B2
:1020500008F06FC0292D990C330B20533109690109
:10206000330FEE08FF08C60ED71EE81EF91E91902A
:10207000E3CFC701B6010E94BA02892B09F093CFC2
:10208000FF92EF92DF92CF9284ED94E06FC0B601A1
:102090008FEF94E00E946C05892B09F063CFF3E089
:1020A0008F16910409F05ECFBE016F5F7F4FF7017D
:1020B000848195810E943705892B81F0F701858104
:1020C0008F9384818F9386E095E09F938F930E94F6
:1020D000EB0C0F900F900F900F9044CF89819A8155
:1020E00023E5209FD001219FB00D1124AB5BB44F9D
:1020F0002A9DF0012B9DF00D1124EB5BF44F1496FB
:102100002D913C9144815581240F351F82179307EF
:1021100068F09F938F9383E395E09F938F930E9442
:10212000EB0C0F900F900F900F903DCF978386830D
:102130003ACFAF92BF9285E595E0C7CF83E5809F08
:10214000F001819FF00D1124EB5BF44F80819181B0
:10215000A281B3818C159D05AE05BF0509F089CF1D
:10216000FF92EF92DF92CF928DEA94E09F938F934C
:102170000E94EB0C0F900F900F900F900F900F900C
:10218000F9CE8F929F92AF92BF92CF92DF92EF9251
:10219000FF920F931F93CF93DF93CDB7DEB7C25A51
:1021A000D1090FB6F894DEBF0FBECDBFFB01029779
:1021B00009F076C167E775E0828193810E946C0522
:1021C000892B09F06DC15E0121EAA20EB11CBF92FC
:1021D000AF921F928AE28F931F928F931F928F93D9
:1021E0001F928F931F928F931F928F931F928EE750
:1021F0008F938EE795E09F938F9383E895E09F936D
:102200008F931F9210E51F93CE0101967C019F933F
:102210008F930E94D90C8DE995E09F938F931F9225
:102220001F938E010F5A1F4F1F930F930E94D90CBB
:102230004C01B701C8010E946C056C010FB6F894FF
:10224000DEBF0FBECDBF892BA9F0FF92EF921F9387
:102250000F931F9281E08F9386EB95E09F938F936E
:102260000E94EB0C0FB6F894DEBF0FBECDBFCC249E
:10227000C394D12CF501808191818816990699F03B
:102280009F928F929F938F938FED95E09F938F9363
:102290000E94EB0CFFEFCF1ADF0A0F900F900F9008
:1022A0000F900F900F908EE795E09F938F9384E1AE
:1022B00096E09F938F931F928AE28F931F928F9342
:1022C0001F9284E08F938AE196E09F938F931F92F1
:1022D00020E5922E9F92FF92EF920E94D90C8DE200
:1022E00096E09F938F931F929F921F930F930E944C
:1022F000D90CB701C8010E946C050FB6F894DEBF77
:102300000FBECDBF892BA9F0FF92EF921F930F93C1
:102310001F9283E08F9386EB95E09F938F930E94AB
:10232000EB0C3FEFC31AD30A0FB6F894DEBF0FBE13
:10233000CDBF8FEF8F9386ED8F931F928AE28F939D
:102340001F928F9385E496E09F938F938DE496E0A0
:102350009F938F931F9290E5992E9F92FF92EF92F9
:102360000E94D90C8FE596E09F938F931F929F92C6
:102370001F930F930E94D90C9C012F5F3F4FF501D3
:1023800031832083800F911F45E2FC014083200FA1
:10239000311FF9011082B701C8010E946C050FB608
:1023A000F894DEBF0FBECDBF892BA9F0FF92EF924C
:1023B0001F930F931F9284E08F9386EB95E09F937A
:1023C0008F930E94EB0C3FEFC31AD30A0FB6F89419
:1023D000DEBF0FBECDBF1F928AE28F931F921F9266
:1023E0001F921F921F921F921F928F931F921F92F4
:1023F0001F928F931F928F931F928F9380E796E087
:102400009F938F931F9280E5B82EBF92FF92EF9219
:102410000E94D90C86E896E09F938F931F92BF92FB
:102420001F930F930E94D90CB701C8010E946C053D
:102430000FB6F894DEBF0FBECDBF892B31F1FF92EE
:10244000EF921F930F931F9285E08F9386EB95E099
:102450009F938F930E94EB0C0FB6F894DEBF0FBED4
:10246000CDBFCE55DF4F0FB6F894DEBF0FBECDBF48
:10247000DF91CF911F910F91FF90EF90DF90CF9060
:10248000BF90AF909F908F90089585E996E0CD28FA
:1024900041F79F938F930E94EB0C0F900F90E1CF29
:1024A0008DE996E0F6CFCF93DF93029749F08CE267
:1024B00097E09F938F930E94EB0C0F900F9020C09A
:1024C000FB01C281D38164E577E0CE010E946C05F7
:1024D000892BC9F4E091430BF091440BEE0FFF1FE1
:1024E000E95AFD4F81818F9380818F938BE597E02F
:1024F0009F938F930E94EB0C0F900F900F900F9073
:10250000DF91CF9108956BE677E0CE010E946C05D4
:10251000892B69F68091430B9091440B079739F40E
:102520001092440B1092430B83E797E0C2CF85E9EA
:1025300097E0BFCFAF92BF92CF92DF92EF92FF9220
:102540000F931F93CF93DF93CDB7DEB7A0970FB64E
:10255000F894DEBF0FBECDBF2FB7F8944091F30CB7
:102560005091F40C8091F10C9091F20C8417950726
:1025700008F467C01092F40C1092F30C1092F20C55
:102580001092F10C10E02FBFE0900116F0900216AF
:10259000A090FF15B09000168091FD159091FE154A
:1025A000892BE1F01092FE151092FD1583E096E163
:1025B000F701ED5FF94E10829F938F9388EC97E0BF
:1025C0009F938F938BEC97E09F938F930E94EB0CDC
:1025D0000F900F900F900F900F900F90112309F410
:1025E00066C06701CA18DB088091FB159091FC1545
:1025F0008330910509F48DC0A8F58130910509F467
:102600004DC0029709F464C081E090E01B3109F4E9
:102610004AC01B3009F43CC20CF0F5C0153009F477
:10262000CAC10CF09EC0123009F40FC20CF093C066
:10263000113009F470C080EE810F8F3508F073C03F
:102640001BC08091F10C9091F20CAC014F5F5F4F79
:102650005093F20C4093F10C9927FC01EF50F34F8B
:10266000148191CF8430910509F462C0059761F619
:102670001092FC151092FB159FE7E916F10408F083
:1026800052C0F701ED5FF94EC7013197C816D90660
:1026900008F074C2019720812183F7CF1B3509F020
:1026A000B8CF82E090E09093FC158093FB15A09644
:1026B0000FB6F894DEBF0FBECDBFDF91CF911F9153
:1026C0000F91FF90EF90DF90CF90BF90AF90089563
:1026D000123409F47EC154F41333C1F0113409F4F7
:1026E000A2C0113371F483E090E0DDCF143409F41B
:1026F000ACC10CF498C1163409F45DC11D3409F461
:1027000043C01092FC151092FB15D1CF84E090E0ED
:10271000CACF1E37B1F7B60188E00E94C901F09216
:102720000016E092FF15F0E0E0E010E000E013C1D9
:102730001E3739F7A114B104B1F3C6018D5F994E6C
:10274000FC019F01235036412E153F0508F0C6C1FC
:1027500021812193F6CF133009F4E8C0143051F3EE
:102760006ACF183009F4B4C054F4163009F45BC1D0
:10277000173009F060CF87E00E943001D4CF1930C4
:10278000D1F31A3009F057CF8AE00E943001F701E7
:10279000ED5FF94E108281E090E09093FE158093FA
:1027A000FD15109200161092FF15EF2849F11092B6
:1027B0000216109201160091F70D1091F80DF80114
:1027C0003197EF70FF27F695FE2FEE27F795E795E7
:1027D000E550F24FA3E0B6E19F0120583F4F8191B1
:1027E0009D91891310C2882319F02E173F07B9F75E
:1027F0008091F70D9091F80D9093F60D8093F50D63
:10280000E3E0F6E192CF123109F4D2C00CF04EC0F1
:102810001D3009F4B9CF0CF4CBC01E3009F4D9C077
:10282000103109F008CF0091F50D1091F60D80914F
:10283000F90D9091FA0D8017910708F074CF8091EF
:10284000F70D9091F80D0817190768F08F70992708
:102850009695982F88279795879563E076E1855020
:10286000924F0E94B300015011091093F60D00938E
:10287000F50DB8016F7077277695762F66277795D7
:1028800067956550724F83E096E10E94B3000E9405
:10289000B40CE3E0F6E1CF01835096412191211180
:1028A000FACF90930216809301163DCF173109F4A9
:1028B0002BC144F41531F1F085E090E0163109F4B4
:1028C000F2CEB9CE183109F456C11F3709F0B3CE94
:1028D000C114D10409F427CF86010E5F194EF80107
:1028E000CF01835096418E159F0508F0DEC081818F
:1028F0008193F6CFD601AD5FB94EE3E0F6E1CF01AB
:10290000835096418A159B0508F0A9C08D9181934B
:10291000F6CF8F7099279093FA0D8093F90D0F5091
:1029200011091093F80D0093F70D62CF1092021663
:1029300010920116109200161092FF150FEF1FEF64
:102940008AE00E94300181E090E09093FE15809330
:10295000FD15F0E0E0E01092FC151092FB15012B44
:1029600009F0A5CE309709F4A2CE208190E080E056
:1029700010E000E0222309F471C1203209F40FC1F4
:10298000009799F4003111050CF010C1D801AA0F7D
:10299000BB1F81E090E08C0F9D1FA80FB91FED9326
:1029A000FC930F5F1F4F81E090E031962081E2CFD2
:1029B00010E000E0C5CFF701ED5FF94E1082C601CF
:1029C0008D5F994E0E94BC01109200161092FF1567
:1029D000AACE6091F50D7091F60D8091F70D909152
:1029E000F80D6817790708F09ECE6F5F7F4F7093E0
:1029F000F60D6093F50D6F7077277695762F662725
:102A0000779567956550724F83E096E10E94B30019
:102A10000E94B40CE3E0F6E1CF018350964121918E
:102A20002111FACF3ECFA114B10409F47CCEF601F6
:102A3000ED5FF94E80810E94300121E0A21AB108B9
:102A4000B0920016A092FF156ECECD2809F46BCE81
:102A500088E00E9430018FEFA81AB80AF1CFB601C2
:102A600088E00E94C901F501ED5FF94E108283E014
:102A700096E10E94BC01B60180E20E94C901B70143
:102A800088E00E94C901B0920216A09201164BCEB6
:102A9000B50180E20E94C901B50188E00E94C90128
:102AA000D0920216C09201168FCFF7013197F093A2
:102AB0000216E0930116ED5FF94E108288E00E9445
:102AC0003001C8010E94BC0180E20E943001B501C2
:102AD0006F5F7F4F88E00E94C90125CEF7013197D3
:102AE000F0930216E0930116ED5FF94E10820E94FA
:102AF000BC0180E20E943001C5010197909300164D
:102B00008093FF15B501E6CFC114D10409F40BCEB3
:102B1000F601EF5FF94EC60130E020E001974181F8
:102B2000403209F0A6C0009709F4A6C0211531056E
:102B300031F02081203209F49FC021E030E031974C
:102B4000EDCFF701E01BF10BF0930216E0930116B5
:102B5000ED5FF94E1082B60188E00E94C90183E062
:102B600096E10E94BC01B80180E20E94C901B50152
:102B7000600F711FAFCF0E94B40CD5CDF701319615
:102B8000F0930216E0930116ED5FF94E1082C60134
:102B90008D5F994EDC011C930E94BC01B3CF00975E
:102BA00009F403CF108290E080E0FFCE81ED97E042
:102BB0009F938F930E94EB0C0F900F9078CDB4E011
:102BC000EB0EF11CD7018D919C91009779F0B60125
:102BD0000E946C05892B99F7D7011296ED91FC9113
:102BE000BE016F5F7F4FC801199561CDDF92CF9213
:102BF00086EE97E09F938F930E94EB0C0F900F90BF
:102C00000F900F9054CD7801EFEFEE1AFE0AF0927C
:102C1000F80DE092F70DC8018F7099279695982FBF
:102C200088279795879563E076E18550924F0E94BB
:102C3000B3008091F90D9091FA0DE81AF90AF0E1CC
:102C4000EF16F10408F4D4CD01968031910508F017
:102C500060CE9093FA0D8093F90DCACDC980DA80C9
:102C600080E0E82E82E0F82E0115110509F0AACFC8
:102C70001ECD009709F05DCF8601081B190BFC01E2
:102C8000ED5FF94ECF01835096418C159D0508F0FC
:102C900058CFDF01A00FB11F8C918193F3CF8EE04D
:102CA00098E09F938F930E94EB0C0F900F900895E4
:102CB0001F920F920FB60F9211240BB60F922F9303
:102CC0003F934F935F936F937F938F939F93AF93B4
:102CD000BF93CF93EF93FF9385E190E00E94FE00B6
:102CE000C82F80FF05C061E082E094E00E94C80028
:102CF000C1FF05C061E082E095E00E94C800C2FF0C
:102D000005C061E082E096E00E94C800C3FF05C0F4
:102D100061E082E097E00E94C800C07E29F060EE8A
:102D200085E190E00E94C800FF91EF91CF91BF91A3
:102D3000AF919F918F917F916F915F914F913F9153
:102D40002F910F900BBE0F900FBE0F901F901895F4
:102D50001F920F920FB60F9211240BB60F922F9362
:102D60004F935F938F939F93EF93FF932FB7F894B5
:102D70004091ED0B5091EE0B8091EF0B9091F00B89
:102D80004817590708F58091ED0B9091EE0BAC01B7
:102D90004F5F5F4F5093EE0B4093ED0B9927FC0173
:102DA000E351F44F84818093C6002FBFFF91EF91D0
:102DB0009F918F915F914F912F910F900BBE0F902C
:102DC0000FBE0F901F9018958091C1008F7D80934A
:102DD000C1001092F00B1092EF0B1092EE0B1092BC
:102DE000ED0BE3CF1F920F920FB60F9211240BB68B
:102DF0000F922F933F934F935F938F939F93EF93F4
:102E0000FF938091C0003091C60082FD21C02FB792
:102E1000F8948091F30C9091F40C4091F10C509146
:102E2000F20C841B950B8F3F910509F080F4809183
:102E3000F30C9091F40CAC014F5F5F4F5093F40C86
:102E40004093F30C9927FC01EF50F34F34832FBFCD
:102E5000FF91EF919F918F915F914F913F912F91B2
:102E60000F900BBE0F900FBE0F901F9018951F92E2
:102E70000F920FB60F9211242F933F934F935F93AE
:102E80006F937F938F939F93AF932091831630918D
:102E90008416409185165091861660918716709120
:102EA00088168091891690918A16A1E00E9458197F
:102EB000209383163093841640938516509386167C
:102EC00060938716709388168093891690938A165C
:102ED000AF919F918F917F916F915F914F913F91B2
:102EE0002F910F900FBE0F901F901895289A209A3F
:102EF00080E58CBD81E08DBD84B1866084B981E0C0
:102F000090E09093EC0B8093EB0B1092980B109247
:102F1000990B10929A0B10929B0B10929D0B109292
:102F20009C0B68EE73E080E090E00E94BA020E9481
:102F3000E3011092C50087E68093C40088E980937E
:102F4000C10086E08093C2001092F40C1092F30C42
:102F50001092F20C1092F10C1092F00B1092EF0BF9
:102F60001092EE0B1092ED0B78942C9A249A749A8E
:102F7000EC9A60E890E080E00E94C8006FEC86E187
:102F800090E00E94C80046E050E061E872E089E00D
:102F900090E00E94E0001092031610920216109228
:102FA0000116109200161092FF151092FE15109245
:102FB000FD151092FC151092FB15EBEFFDE0108251
:102FC000E058FF4F85E1EB3FF807C9F71092FA0D83
:102FD0001092F90D1092F80D1092F70D1092F60D57
:102FE0001092F50DCDE1D2E0E881F9813097D1F36F
:102FF0002E803F80488459846A847B848C849D849D
:103000009101A201B301C401A0E00E946D1991F1E8
:10301000A0908316B0908416C0908516D090861626
:10302000E0908716F09088160091891610918A1604
:103030000E94641909F0F0F48A819B811995AE8091
:10304000BF80C884D984EA84FB840C851D859101E6
:10305000A201B301C4010E94641961F44C815D8135
:1030600057FF0AC01E821F82188619861A861B8681
:103070001C861D862E96B8CFA0908316B09084161D
:10308000C0908516D0908616E0908716F09088162E
:103090000091891610918A16952F990F990B9A0114
:1030A000492F592F692F792F892F0E944F192E836D
:1030B0003F83488759876A877B878C879D87DACFCC
:1030C000DB018F939F930E94B818BF91AF91A29F8D
:1030D000800D911DA39F900DB29F900D1124089516
:1030E000A1E21A2EAA1BBB1BFD010DC0AA1FBB1F0C
:1030F000EE1FFF1FA217B307E407F50720F0A21B7E
:10310000B30BE40BF50B661F771F881F991F1A94EA
:1031100069F760957095809590959B01AC01BD0114
:10312000CF010895052E97FB1EF400940E94A91864
:1031300057FD07D00E94701807FC03D04EF40C9482
:10314000A91850954095309521953F4F4F4F5F4FAF
:10315000089590958095709561957F4F8F4F9F4F03
:10316000089569279627692778278727782708955C
:103170000E947919A59F900DB49F900DA49F800D7A
:10318000911D11240895689401C0E8948F929F9234
:10319000CF93DF930E94D118DF91CF919F908F90B2
:1031A000089588249924F401E401B0E49F93AA27A8
:1031B0009A158B049C04ED05FE05CF05D007A107E9
:1031C00098F4AD2FDC2FCF2FFE2FE92D982C892ED0
:1031D000982F872F762F652F542F432F322F22279A
:1031E000B85031F7BF9127C01B2EBF91BB27220FCC
:1031F000331F441F551F661F771F881F991F881C88
:10320000991CEE1FFF1FCC1FDD1FAA1FBB1F8A14B6
:103210009B04EC05FD05CE05DF05A007B10748F0CE
:103220008A189B08EC09FD09CE09DF09A00BB10B38
:1032300021601A94E1F62EF49401AF01BE01CD0194
:10324000000C089560957095809590953095409507
:10325000509521953F4F4F4F5F4F6F4F7F4F8F4F8F
:103260009F4F089597FD1094002E083098F0085055
:10327000232F342F452F562F672F782F892F912DED
:10328000F4CF1594979587957795679557954795BA
:10329000379527950A95AAF71124002D08952A0D30
:1032A0003B1D4C1D5D1D6E1D7F1D801F911F0895D0
:1032B0000024A7FD00942A0F301D401D501D601DE5
:1032C000701D801D901D08952A153B054C055D0558
:1032D0006E057F058007910708950024A7FD0094DF
:1032E0002A173005400550056005700580059005DA
:1032F0000895A29FB001B39FC001A39F700D811DCF
:103300001124911DB29F700D811D1124911D0895EE
:04331000F894FFCF5F
:10331400E7085312EC084F167E05C110F1089C0F04
:10332400F708FF0C0000000063825363FF9A120049
:103334000000000100000000000000EC090000FF94
:10334400FF000000000000000000000000FFFF007C
:10335400000000000000004E0CF80A0C0AFD0909E8
:103364000A060A030A000AFD0805090A0914091FC6
:103374000925092E093809FF07FF07FF07FF070082
:103384000000080010001800000300060008000AEE
:103394000090A2DA0047AF496E76616C69642061DF
:1033A4006464726573732E0A00496E76616C696495
:1033B400206C656E6774682E0A0020253032780010
:1033C40077004E6F206461746120746F2077726996
:1033D40074652E0A00496E76616C696420646174B8
:1033E400612E0A0055736167653A207735313030B4
:1033F400203C616464723E2072205B6C656E5D0AE1
:1034040020202020202020202020202020202020B8
:103414002020202077203C646174613E0A005469B6
:10342400636B20636F756E743A20256C6C750A00AB
:1034340043757272656E74207469636B206672657D
:103444007175656E63793A20256C7520487A0A0A8D
:10345400002020494420205052534320204F434D04
:103464005020204572726F7220282525290A0020D9
:10347400202D2D20202D2D2D2D20202D2D2D2D20C6
:10348400202D2D2D2D2D2D2D2D2D0A0025632025AC
:103494003278202025346420202534782020256C9F
:1034A400642E25302A6C640A0050726F706F736545
:1034B40064207469636B206672657175656E6379E7
:1034C4003A20256C7520487A0A0A0020204E6F2085
:1034D400636F6E66696775726174696F6E73206578
:1034E4007869737420666F72207468652070726FD7
:1034F400706F736564207469636B2066726571759F
:10350400656E6379210A0055736167653A207469B1
:103514006D657220696E666F0A20202020202020AD
:1035240020202020202066726571203C7469636B22
:10353400206672657175656E63793E0A20202020CD
:1035440020202020202020202073656C65637420B7
:103554003C69643E0A2020202020202020202020B6
:1035640020207265766572740A2020202020202095
:103574002020202020206170706C790A00696E661A
:103584006F006170706C79004E6F206E65772063F8
:103594006F6E66696775726174696F6E20686173B6
:1035A400206265656E2073656C65637465642E0ABC
:1035B4000072657665727400667265710054696D97
:1035C400657220697320616C7265616479206F7023
:1035D40065726174696E6720617420256C7520487A
:1035E4007A2E0A00256C7520487A206973206E6F44
:1035F400742061636869657661626C6520776974BB
:103604006820746869732074696D65722E0A00738A
:10361400656C6563740022257322206973206E6FC4
:103624007420612068657861646563696D616C20EC
:10363400636F6E66696775726174696F6E20494461
:103644002E0A00436F6E66696775726174696F6EE6
:1036540020257820646F6573206E6F742065786907
:1036640073742E0A0022257322206973206E6F74EE
:10367400206120646563696D616C20667265717593
:10368400656E63792E0A007072696E7466007465E3
:103694007374002573202563202564202569202563
:1036A4006F202575202578202558256E00746573B4
:1036B40074207E20343220343220353220343220BB
:1036C4003261203241004641494C45442025640A78
:1036D400202045787065637465643A2025730A2058
:1036E4002041637475616C3A20202025730A0046DA
:1036F40041494C454420320A2020276E2720636F1D
:103704006E76657273696F6E2070726F647563652F
:103714006420256420696E7374656164206F66207B
:1037240025640A0068656C6C6F00252A64202530C6
:1037340034782025327320252D367321002020343F
:103744003220303032612068656C6C6F2074657390
:10375400742020210074657374696E6700252E340B
:10376400732025206420252B6420256425250074DE
:1037740065737420203432202B3432202D343200EF
:10378400256868642025686420256C6420256C6C99
:103794006420257A750034322034322034322034C7
:1037A40032203432005041535345440A005573616A
:1037B40067653A2074657374203C73756974653E5B
:1037C4000A202054657374205375697465730A2044
:1037D4002020207072696E7466202D20436F6D70F6
:1037E40061726573206F7574707574206F662073D1
:1037F4006E7072696E746620746F2065787065638C
:10380400746564206461746120616E6420707269FF
:103814006E74730A202020202020202020202020C5
:10382400206D69736D61746368657320666F7220BF
:10383400646562756767696E672E0A005573616710
:10384400653A2064686370207374617475730A2028
:1038540020202020202064686370207265737461C6
:1038640072740A0073746174757300444843502081
:1038740073746174653A2025730A00726573746108
:1038840072740044484350207374617465206D6100
:103894006368696E652077696C6C20726573746106
:1038A40072742E0A00444843502063616E206F6E88
:1038B4006C7920626520726573746172746564202A
:1038C40069662074686572652077617320616E2073
:1038D4006572726F722E0A003E20000D25732573E7
:1038E40000546F6F206D616E7920617267756D652C
:1038F4006E7473210A00556E7265636F676E697A20
:10390400656420636F6D6D616E6420222573222EC1
:1039140020547279202268656C70222E0A00547932
:103924007065206120636F6D6D616E642062792023
:10393400697473656C6620746F207365652069749F
:10394400732075736167652E0A0A646863702020AA
:103954002D204D6F6E69746F7220616E6420636FE9
:103964006E74726F6C2074686520444843502073F1
:1039740074617465206D616368696E650A68656C5D
:103984007020202D205072696E7420746869732031
:1039940068656C70206D6573736167650A7465731F
:1039A4007420202D2052756E20612074657374205C
:1039B40073756974650A74696D6572202D20436F8F
:1039C4006E666967757265207468652074696D65D3
:1039D400720A7735313030202D2052656164206FB2
:1039E40072207772697465205735313030206D65E7
:1039F4006D6F72790A0A00646863700068656C70A0
:103A04000074696D6572007735313030005354416C
:103A14005254555000494E49540053454C45435463
:103A2400494E470052455155455354494E4700426B
:103A34004F554E440052454E4557494E4700524556
:0E3A440042494E44494E47004552524F5200EF
:00000001FF
